:020000040800F2
:10000000600C002005010008B72700089B210008AC
:10001000B5270008D50600081532000800000000CA
:10002000000000000000000000000000A72C0008F5
:10003000BF07000800000000A52C0008A92C00083C
:100040001F0100081F0100081F0100081F01000810
:100050001F0100081F010008C1070008050800086B
:100060001F0100081F0100088D0800081F0100087B
:100070001F0100081F0100081F0100081F010008E0
:100080007D070008890700081F0100081F010008FC
:100090001F0100081F0100081F010008CD0800080B
:1000A0001F0100081F0100081F0100081F010008B0
:1000B0001F0100081F0100080D2D00081F01000886
:1000C0001F0100081F0100081F0100081F01000890
:1000D0001F0100081F010008E13100081F0100088E
:1000E0001F0100081F0100081F010008DFF810D0E1
:1000F00000F0DEFA00480047B53B0008AFF300808F
:10010000600C00200648804706480047FEE7FEE7EF
:10011000FEE7FEE7FEE7FEE7FEE7FEE7FEE7FEE7B7
:100120000B2D0008ED000008202A04DB203A21FAFC
:1001300002F00021704721FA02F3D040C2F1200200
:10014000914008431946704740EA01039B0703D0DA
:1001500009E008C9121F08C0042AFAD203E011F806
:10016000013B00F8013B521EF9D27047D2B201E0C8
:1001700000F8012B491EFBD270470022F6E710B5AC
:1001800013460A4604461946FFF7F0FF204610BD05
:1001900030B505462A460B4612F8010B13F8014B01
:1001A00008B1A042F8D01CB1002802D06D1CF1E7C4
:1001B000284630BD2DE9FE4F804681EA0300C00F7E
:1001C0000C46009021F0004123F00045B8EB0200FE
:1001D000A94105D24046214690461C460B460246A0
:1001E00023F00040104347D0270DC7F30A00C3F3A4
:1001F0000A510290401A019040286BDAC3F31300B1
:1002000040F4801B0098924620B10023D2EB030AF1
:1002100063EB0B0B01985946C0F14002504600F0C9
:1002200098F906460D4650465946019A00F0A0F945
:1002300010EB08006141002487EA115284EAE77359
:100240001A4340D0009A62B3019A012A4FEA07523A
:1002500015DC001B61EB02014FF0004202EA07527D
:10026000CDE90042001C41F5801132462B4600F0DA
:10027000A0F903B0BDE8F08F40462146F9E7001B26
:1002800061EB0201001C41F5801300185B4120184E
:10029000A2F5001747EB030140EAD570B6196D418E
:1002A00011E06D084FEA360645EAC0754FEA07527D
:1002B000001B61EB0201001C41F5801149084FEA67
:1002C00030000019514132462B4603B0BDE8F04FD3
:1002D00000F060B90098012240000023D0EB020238
:1002E00063EBE073009821464FEAE074B8EB00003E
:1002F00061EB0401E9E783F000435BE781F0004133
:1003000058E72DE9FE4F81EA030404F0004421F090
:10031000004100944FF0000B23F0004350EA010429
:100320005ED052EA03045BD0C3F30A54C1F30A550A
:100330002C44A4F2F3340194A0FB0254C1F3130142
:1003400041F48011C3F3130343F4801301FB02440F
:1003500000FB034E840A970A44EA815447EA835714
:10036000A4FB076802958D0A05FB07854FEA932CCD
:1003700004FB0C542705029D4FEA065847EA16373E
:10038000B5EB08056EEB070C870E920E47EA811756
:1003900042EA8312A7FB0201B6EB0B0164EB0004F7
:1003A0002B0D43EA0C335E1844EB1C50DA465146E1
:1003B000E7FB0201C5F313044FEA0B3343EA14537E
:1003C0004FEA0432019C43EA0603A4F10C040294B0
:1003D000009CCDE900B400F0ECF803B0BDE8F08F6C
:1003E00000200146F9E72DE9F04D81EA030404F00D
:1003F000004B21F0004514464FF0000A23F0004165
:1004000050EA050220D054EA01021DD0C5F30A5774
:100410000246C5F31303C1F31300C1F30A5640F4B7
:10042000801543F48013A7EB0608101BD64608F28C
:10043000FD3873EB050002D308F1010801E09218C2
:100440005B41B8F1000F03DA00200146BDE8F08DF2
:1004500000204FF48011064684460EE0171B73EB14
:10046000050705D3121B63EB050306434CEA010C99
:1004700049084FEA300092185B4150EA0107EDD17C
:1004800052EA030012D082EA040083EA050108431D
:1004900005D0101BAB4106D20122002306E000224A
:1004A0004FF0004302E06FF0010253101AEB060018
:1004B0004CEB085110EB0A0041EB0B01BDE8F04D8D
:1004C00000F068B830B50B46014600202022012418
:1004D00009E021FA02F59D4205D303FA02F5491B12
:1004E00004FA02F52844151EA2F10102F1DC30BD28
:1004F0002DE9F05F0546002092469B468846064659
:10050000814640241BE02846414647462246FFF7E5
:100510000BFE53465A46C01A914110D31146184655
:10052000224600F016F82D1A67EB01084F462246C6
:100530000120002100F00DF817EB00094E41201EAC
:10054000A4F10104DFDC484631462A464346BDE8B3
:10055000F09F202A04DB203A00FA02F100207047C5
:100560009140C2F1200320FA03F3194390407047F1
:10057000202A06DBCB17203A41FA02F043EAE07367
:1005800006E041FA02F3D040C2F120029140084354
:100590001946704710B5141E73F1000408DA401CA8
:1005A00041F1000192185B411A4301D120F0010092
:1005B00010BD2DE9F04D92469B4611B1B1FA81F282
:1005C00002E0B0FA80F220329046FFF7C2FF044604
:1005D0000F4640EA0A0041EA0B0153465A460843D7
:1005E00013D0114653EA010019D0C8F14002504619
:1005F000FFF79AFD05460E46504659464246FFF71C
:10060000A8FF084305D0012004E020463946BDE894
:10061000F08D0020054346EAE0762C4337430A98E4
:100620006305E40AA0EB08000022FD0A44EA4754EF
:100630000A3002D500200146E9E701051019694199
:10064000DDE9084500196941BDE8F04DA2E7C1F3B5
:100650000A52C1F3130140F2FF3341F480119A4270
:1006600002DA00200146704740F233439A42A2F278
:10067000334202DC5242FFF757BDFFF76ABF00006A
:1006800030B5041E71F1000404DB4FF00044404219
:1006900064EB0101141E73F1000405DB1C464FF0EE
:1006A0000043524263EB0403994208BF904230BDBD
:1006B000064C074D06E0E06840F0010394E80700AF
:1006C00098471034AC42F6D3FFF714FDA05A000847
:1006D000C05A0008FEE7000070B5254C01212046F5
:1006E00000F00EFC012841D1224908794A79C0EB7B
:1006F000001002EB8000CA78C2EB4213C3EB022267
:1007000000EB0212887840F2A323584302EBC01298
:10071000087ACB79C0EB001003EB80004B7AC3EB77
:100720004315C5EB032300EB0313887A40F2A321A2
:10073000484303EBC0118A4201D3501A02E0C84378
:100740001044401C0A2811D301221102204600F057
:10075000DCFB094C01221146204600F0D6FB204666
:10076000BDE870400122022100F0CFBB70BD000047
:10077000000C01400000002000080140014800F08A
:10078000ADB90000D4070020014800F0A7B900006F
:100790001808002030B590F840500124AC40C56BDB
:1007A0006C60046863604368102B036803D0996031
:1007B0000068C26030BD9A600068C16030BD70479B
:1007C0000E4810B50168C90717D0012101600C4C13
:1007D000A079401C10F0FF01A17102D0012002F0AD
:1007E000BBF96079E07120792072E0786072A078BE
:1007F000A072BDE8104002F0F9BC10BD1404014025
:100800000000002038B516480168890727D5022165
:10081000016014480121C27AEAB10022C27200913B
:10082000102311A23021002002F02CF902F084F8EC
:1008300000224FF48071134800F067FB124C002235
:100840000121204600F061FB2046BDE8384000222F
:10085000022100F05ABBC17202F0A6F9E8E738BDE8
:10086000140401400000002020202020202020200F
:100870002020202020202020202020202020202078
:1008800000000000000C0140000801400D4810B5B8
:100890000168C90614D51021016000F03BFB0A4C29
:1008A0006169401A0A280BD32069401C2061042882
:1008B00001DD0020206102F003F900F02BFB6061F4
:1008C00010BD000014040140000000202DE9F0419B
:1008D00047480168474C890642F20F7540F26C7632
:1008E0003FD52021016000F015FB6169401A0A28FC
:1008F0007CD320690021012705282FD2DFE800F0F2
:10090000030B131F2700A089401C80B2A081A842BE
:1009100024D9A68122E06078401CC0B260700C2807
:100920001CD967701AE0A189607803F0F3F8A17808
:10093000884202DD491CA17010E0A7700EE0E0784B
:10094000401CC0B2E070182808D3E17006E020799E
:10095000401CC0B220713C2800D3217102F0B0F8D5
:1009600041E00168490639D54021016000F0D2FA22
:100970006169401A0A2839D320690528EED2DFE8D8
:1009800000F0030B131E2500A089B04201D8A581F9
:10099000E4E7401EA081E1E76078012801D80C203F
:1009A00000E0401E6070D9E7A078012801D9401E00
:1009B00003E0A189607803F0ADF8A070CEE7E0789D
:1009C00010B1401EE070C9E71720FBE7207918B18D
:1009D000401E2071C2E709E03B20FAE701680906E2
:1009E00004D58021016000F095FA6061BDE8F081D6
:1009F000140401400000002072B6FEE710B590F824
:100A000021100022022905D00421816380F82020D2
:100A1000012010BD01680B6823F00E030B60016814
:100A20000B6823F001030B6090F84030C46B012188
:100A300001FA03F3636080F8211080F8202010464B
:100A400010BD000010B590F821100024022903D039
:100A50000421816301243DE001680A6822F00E024E
:100A60000A6001680A6822F001020A601A4A0168F5
:100A7000914201D1012121E0174A1432914201D162
:100A800010211BE0144A2832914201D1891515E04A
:100A9000114A3C32914201D189140FE00E4A503282
:100AA000914202D14FF4803108E00B4A6432914206
:100AB00002D14FF4801101E04FF08071064A083AEC
:100AC0005160012180F82110002180F82010416B35
:100AD00001B18847204610BD080002402DE9F05FB3
:100AE000C16B0C6801680B68D0F840C0042202FAA0
:100AF0000CF2494DDFF824A1494E4A4FDFF828B1E6
:100B0000DFF828E122422CD05A072AD50A6892063B
:100B100003D40A6822F004020A600168A94201D1E4
:100B2000042219E0514501D1402215E0B14202D121
:100B30004FF4806210E0B94202D14FF480420BE0E2
:100B4000594502D14FF4802206E0714502D14FF49D
:100B5000800201E04FF080622F4908394A60C16A83
:100B60003BE04FF0020808FA0CF818EA040F4FF0C7
:100B700000094FF0010235D05FEA837832D50B6867
:100B80009B0605D40B6823F00A030B6080F8212034
:100B90000168A94201D1022219E0514501D1202268
:100BA00015E0B14202D14FF4007210E0B94202D117
:100BB0004FF400520BE0594502D14FF4003206E0E9
:100BC000714502D14FF4001201E04FF0007212495A
:100BD00008394A6080F82090816A00291AD0BDE85F
:100BE000F05F0847082505FA0CF5254212D01B07CF
:100BF00010D50B6823F00E030B6090F84010C36B08
:100C000002FA01F15960826380F8212080F8209077
:100C1000016BE2E7BDE8F09F080002401C000240C3
:100C20003000024044000240580002406C00024084
:100C300030B528B308C8134914221944B1FBF2F1A6
:100C40008900C16310498163022141771A6843F624
:100C5000F0718A43D0E900142143D0E902452C43C6
:100C60002143046921434469214384692143114399
:100C7000196000214163012242770177084630BDA7
:100C8000012030BDF8FFFDBF0000024070B50446F2
:100C900090F82000002501280CD0012084F82000C5
:100CA00094F821600020012E06D084F8200002254F
:100CB000284670BD022070BD022684F82160A06322
:100CC0002068066826F0010606602046FFF762FDF0
:100CD000E06A00282068016802D041F00E0106E0B9
:100CE00021F0040101602068016841F00A010160FF
:100CF0002068016841F001010160D9E770B5044640
:100D000000F008F90546601C02D00448007804444D
:100D100000F000F9401BA042FAD370BD180000207B
:100D20002DE9F84FDFF8B8910024A9F1040B234610
:100D30000F2709F1040AABF1040EC9E00125A54013
:100D40002A40AA427DD1674ED1F804C0ACEB060818
:100D5000B44532D014DCBCF1030F3AD009DCBCF14D
:100D6000000F2AD0BCF1010F1CD0BCF1020F31D111
:100D70001DE0BCF1110F17D0BCF1120F2AD119E000
:100D8000B8F5881F19D006DCB8F5803F15D0B8F546
:100D9000801F1FD111E0B8F5001F0ED0B8F5041F59
:100DA00018D10AE0CB6815E0CB681B1D12E0CB68B8
:100DB00008330FE0CB680C330CE08B682BB1012BB0
:100DC0004FF0080303D0456104E0042302E005610D
:100DD00000E00023FF2A01D8064601E000F10406E6
:100DE0004FEA840501D9A5F12005D6F8008007FA5D
:100DF00005FC28EA0C0803FA05F548EA0508C6F8D8
:100E000000804D68ED0062D5374DAE6946F00106B1
:100E1000AE61AD6924F0030605F001050095334D80
:100E200006EB050CDCF80850A607360F07FA06F8A3
:100E300025EA0805DFF8B880404503D14FF00008E7
:100E400017E044E0DFF8AC80404502D14FF00108E4
:100E50000FE0DFF8A480404502D14FF0020808E01F
:100E6000DFF89880404502D14FF0030801E04FF0D1
:100E7000040808FA06F848EA0508CCF808804D6826
:100E8000D9F80060ED024D4601D5164300E09643C7
:100E90002E604D68DAF80060AD02554601D5164364
:100EA00000E096432E604D68DBF80060AD035D46C0
:100EB00001D5164300E096432E604D68DEF80060D1
:100EC000ED03754601D5164300E096432E60641C81
:100ED0000D682A46E5407FF431AFBDE8F88F000089
:100EE0000804014000001110001002400000014001
:100EF00000080140000C01400010014000140140B6
:100F00008068084000D0012070470AB10161704735
:100F10000904FBE7014880687047000018000020C2
:100F200070B5040025D094F83D00002520B984F860
:100F30003C50204600F050F9242084F83D00206801
:100F4000016821F0010101602068016841F400415D
:100F500001602068016821F40041016000F09AFA04
:100F60004D4A6168914201D84C4900E04C498842A1
:100F700001D2012070BD4B492368B0FBF1F15E68DE
:100F800026F03F060E435E606368934206D94FF435
:100F9000967359434FF47A73B1FBF3F12368491CFC
:100FA0001E6A26F03F06314319626168914210D8EB
:100FB0004900401EB0FBF1F2521CC2F30B02042A9E
:100FC00001D2042022E0B0FBF1F0401CC0F30B0082
:100FD0001CE0A268F2B301EBC10303EB0116431E50
:100FE000B3FBF6F35B1C43F480431B0549D092B37B
:100FF00001EBC10202EB0111401EB0FBF1F0401CFD
:10100000C0F30B0040F4804040F400402168CA69FE
:101010004CF6FF739A431043C861D4E907100143AB
:101020002068026822F0C00211430160D4E9030184
:1010300001432068826848F2FF339A43114381607C
:10104000D4E9050108432168CA6822F0FF02104371
:10105000C86001E00EE016E02068016841F001017F
:1010600001602564202084F83D00256384F83E500B
:10107000002070BD01EB4106431EB3FBF6F35B1C81
:10108000B3E70120C2E701EB4101401EB0FBF1F0E4
:10109000401CC0F30B00B7E7A086010080841E004F
:1010A00000093D0040420F002DE9FF4F83B09A46F2
:1010B000DDE9119793460446DDF84080FFF72AFFEB
:1010C000054694F83D0020287FD11923012240498C
:1010D0002046009501F0FAF8002876D194F83C00FB
:1010E000012872D0012084F83C0020680168C907FB
:1010F00003D1016841F0010101602068016821F419
:1011000000610160212084F83D00402084F83E0009
:1011100000262664C4F82480A4F82A90608D2085D7
:101120002C48E062CDE9007553465A4620460499A2
:1011300001F04CF870B930E02A463946204601F0FB
:101140006BF958B1206C042804D12068016841F47F
:1011500000710160012007B0BDE8F08F606A21686E
:1011600000780861606A401C6062218D491E89B266
:101170002185628D521E628522685369DB435B07BD
:101180000BD469B100781061606A401C6062208DE8
:10119000401E2085608D401E6085208D0028CBD1AB
:1011A0002A463946204601F065F80028CAD154F88D
:1011B0003D0B016841F400710160202004F81E0914
:1011C000E67766770020C6E7FFE70220C3E7000066
:1011D000020010000000FFFF10B586B00021009152
:1011E0000191029103910068104988421BD1104C73
:1011F000A06940F00800A061A069694600F00800FD
:1012000004904FF44060009012200190032003905E
:101210000848FFF785FDE06940F48000E061E0697F
:1012200000F48000049006B010BD0000005800409B
:1012300000100240000C014002488168027811440D
:101240008160704718000020074810B5016841F020
:1012500010010160032000F075F80F2000F006F87F
:1012600000F024F8002010BD0020024070B50D4DA4
:1012700004464FF47A712878B1FBF0F00A49096806
:10128000B1FBF0F000F0DCFA48B9102C07D20022D4
:101290002146501E00F036F800206C6070BD012021
:1012A00070BD000018000020240000200C4808B584
:1012B000816941F001018161816901F001010091C1
:1012C000C16941F08051C161C06900F08050009057
:1012D0000448416821F0E06141F00071416008BDBF
:1012E0000010024000000140002809DB00F01F024E
:1012F000012191404009800000F1E020C0F8001178
:1013000070470000F0B40E4B1B680C46C3F3022379
:10131000C3F10705042D00D90425191D072901D2A1
:10132000002300E0DB1E012606FA05F1491E2140DC
:1013300099409E40761E16403143F0BC01F080BFBC
:101340000CED00E0064900F0070208684FF6FF03C5
:10135000184040EA0220034A10430860704700002A
:101360000CED00E00000FA052DE9F0470F460500FE
:1013700061D0434E306800F00700B84209D23068AF
:1013800020F0070038433060306800F00700B842B2
:1013900051D128683B4C810712D5400703D56068BE
:1013A00040F4E06060602878000703D5606840F48E
:1013B000605060606068A96820F0F00008436060D9
:1013C0002878C00728D06868012810D02168022832
:1013D00010D0890700292EDA616821F0030101434A
:1013E0006160FFF797FD804641F288390DE0216882
:1013F0008903EFE78901EDE7FFF78CFDA0EB08011A
:10140000494502D90320BDE8F0876068696800F0AB
:101410000C00B0EB810FEFD1306800F00700B8424C
:101420000BD9306820F0070038433060306800F096
:101430000700B84201D00120E5E72878400705D52C
:101440006068E96820F4E06008436060287800077D
:1014500006D56068296920F4605040EAC1006060E8
:1014600000F038F86168084AC1F30311515CC840C4
:101470000649086006480068FFF7F8FE0020C2E74A
:1014800000200240001002406A5A00082400002098
:101490001C0000200448054900684968044AC1F35B
:1014A0000221515CC8407047240000200010024017
:1014B0007A5A00080448054900684968044AC1F39B
:1014C000C221515CC8407047240000200010024037
:1014D0007A5A00080E4A51680E4801F00C03042B9A
:1014E00011D0082B0FD10C48C1F38343C903C05C52
:1014F0000AD55168084AC1F34041921E515C054A21
:101500005043B0FBF1F07047044948437047000076
:101510000010024000127A005A5A000800093D00EB
:101520002DE9F84F040070D02078C04DC00749D095
:101530006868C0F38100012807D06868C0F38100A3
:10154000022809D16868C00306D52868800339D508
:1015500060680028E7D035E06068B0F5803F0BD0C8
:1015600010B1B0F5A02F11D0286820F48030286089
:10157000286820F4802002E0286840F48030286049
:10158000606890B1FFF7C6FC06460AE0286840F4A0
:1015900080202860F0E700BFFFF7BCFC801B6428B8
:1015A00073D828688003F7D50CE0FFF7B3FC064634
:1015B00005E000BFFFF7AEFC801B6428F0D8286868
:1015C0008003F7D420789A4E80074FF001094FF03E
:1015D000000839D5686810F00C0F07D06868C0F3B0
:1015E0008100022809D16868C00306D428688007F2
:1015F00014D52069012808D110E02069B0B1C6F8DF
:101600000090FFF787FC074605E00AE1FFF782FC40
:10161000C01B0228C4D828688007F7D528686169EC
:1016200020F0F80040EAC10028600DE0C6F8008014
:10163000FFF770FC074604E0FFF76CFCC01B0228B4
:1016400023D828688007F7D4207800072CD579485C
:10165000A169D9B1C0F80090FFF75CFC074604E02F
:10166000FFF758FCC01B02280FD8686A8007F7D51F
:1016700071484FF4FA510068B0FBF1F0009000BFE0
:101680000098411E0091FAD20EE080E0C0F8008080
:10169000FFF740FC074604E0FFF73CFCC01B0228B4
:1016A00075D8686A8007F7D42078400760D5E86964
:1016B0000027C00008D4E86940F08050E861E8697C
:1016C000012700F0805000905C480168C90513D4E0
:1016D0000168834641F480710160FFF71BFC82467C
:1016E00006E000BFFFF716FCA0EB0A0064284ED806
:1016F000DBF80000C005F5D5E06801280AD008B184
:10170000052813D0286A20F001002862286A20F0FA
:10171000040002E0286A40F001002862E06841F21B
:10172000883B98B1FFF7F6FB82460BE0286A40F051
:1017300004002862EEE700BFFFF7ECFBA0EB0A0114
:1017400059455AD8286A8007F6D50CE0FFF7E2FB26
:10175000824605E0FFF7DEFBA0EB0A0159454CD8B5
:10176000286A8007F6D41FB1E86920F08050E8614C
:10177000E06988B36968C1F38101022944D0022875
:10178000C6F8608004D0FFF7C5FB044638E034E0BB
:10179000FFF7C0FB074604E0FFF7BCFBC01B0228B5
:1017A0002BD828688001F7D4206AB0F5803F05D196
:1017B0006868A16820F4003008436860D4E9080133
:1017C0000843696821F4741108436860C6F86090A2
:1017D000FFF7A0FB044606E025E000BFFFF79AFBF9
:1017E000001B022809D828688001F7D51BE000BF3C
:1017F000FFF790FB001B022802D90320BDE8F88FF9
:1018000028688001F4D40EE00128F7D06868226AC5
:1018100000F48031914204D1616A00F47010884272
:1018200001D00120EAE70020E8E7000000100240B4
:101830000000424280044242240000200070004028
:1018400010B5401EB0F1807F01D3012010BD4FF0D4
:10185000E02460610F21601701F0F2FC0020A0611C
:1018600007202061002010BD7047704770B590F8C8
:101870003C20012A26D0012480F83C40022280F836
:101880003D2003685A689D6822F070060A6832435A
:101890005A600D4B02689A4208D0B2F1804F05D0D1
:1018A0000A4B9A4202D00A4B9A4204D1496825F069
:1018B00080031943916080F83D40002180F83C107E
:1018C000084670BD022070BD002C0140000400409D
:1018D0000008004010B5040003D094F83D0010B19A
:1018E00007E0012010BD002084F83C00204600F0F5
:1018F0001FF8022084F83D00211D206801F00CFA39
:10190000012084F8460084F83E0084F83F0084F803
:10191000400084F8410084F8420084F8430084F8D1
:10192000440084F8450084F83D00002010BD00000C
:1019300008B500680649884208D10648C16941F0E7
:101940000401C161C06900F00400009008BD0000FE
:10195000000800400010024090F83D10012901D01D
:1019600001207047022180F83D100168CA6842F0EA
:101970000102CA6000680B49884208D0B0F1804F6C
:1019800005D00949884202D00849884204D18168BB
:1019900001F00701062903D0016841F0010101604F
:1019A00000207047002C0140000400400008004067
:1019B00070B5044690F83C000025012817D0012698
:1019C00084F83C60022084F83D002068826822F0A0
:1019D000770222F47F4282600868502838D00DDCFC
:1019E00020284FD005DC90B3102811D14AE0022006
:1019F00070BD302846D040280AD13BE060282FD067
:101A000070280DD0B0F5805F03D0B0F5005F12D024
:101A1000012584F83D60002084F83C00284670BD14
:101A2000CB68D1E90121206801F0B2F92068816812
:101A300041F0770109E0CB68D1E90121206801F08C
:101A4000A7F92068816841F480418160E1E719E0ED
:101A5000CA684968206801F0ADF95021206806E0A5
:101A6000CA684968206801F0B6F96021206801F071
:101A700099F9CEE7CA684968206801F09BF94021CE
:101A80002068F4E7226801461046F0E770472DE928
:101A9000F04104460068C66805694FF00007A907D1
:101AA00013D5B10711D5F91E0161012020772068F7
:101AB00080698007204602D0FFF7E8FF04E000F0CD
:101AC0007EF8204600F07CF82777680716D5700767
:101AD00014D521686FF00400086102202077206887
:101AE000806910F4407F204602D0FFF7CFFF04E06A
:101AF00000F065F8204600F063F82777280715D531
:101B0000300713D521686FF00800086104202077A2
:101B10002068C0698007204602D0FFF7B7FF04E0C5
:101B200000F04DF8204600F04BF82777E80616D570
:101B3000F00614D521686FF01000086108202077A6
:101B40002068C06910F4407F204602D0FFF79EFF56
:101B500004E000F034F8204600F032F82777E80778
:101B600008D0F00706D021686FF001000861204618
:101B700000F028F8280608D5300606D521686FF051
:101B8000800008612046FFF76FFE680608D57006E2
:101B900006D521686FF040000861204600F054F837
:101BA000A8060AD5B00608D521686FF020000861A4
:101BB0002046BDE8F041FFF758BEBDE8F081704710
:101BC000704700001CB500681D49884236D11D4C85
:101BD0006079401CC0B260713C2825D30020607140
:101BE0002179491CC9B221713C291DD32071E178AA
:101BF000491CC9B2E170182916D3E070A078401CC6
:101C0000A070A189607801F085FFA17888420BDA85
:101C10000120A0706178491CC9B261700C2903D9F8
:101C20006070A089401CA08161792079CDE9000114
:101C3000E378A2786178A08900F0D2FF1CBD000093
:101C40000008004000000020704738B5044690F8B6
:101C50004200202801D0022038BD51B14AB10120F4
:101C6000206300206063204601F038FA216B0129CF
:101C700001D0012038BD21680A68496800912168B7
:101C80000C3151E8002F42F0100241E80023002BF4
:101C9000F5D138BD10B500680E4A904219D10A46F8
:101CA0000A230D490D4800F027FA0DA10A48FEF756
:101CB0006FFA10B10E49012008704FF40072064906
:101CC0000C48FFF7C2FF0C480068016821F00401CE
:101CD000016010BD00440040A8040020440700201B
:101CE0002B4D515454535542524543560000000069
:101CF000000000208C070020D4070020704700005F
:101D0000F8B5016804460868CA684B6910F00F0FFF
:101D10004FF0000559D003F0010602F490773743E5
:101D200065D0C10705D0D10503D5616C41F0010133
:101D30006164410705D5D90703D0616C41F0020108
:101D40006164810705D5D90703D0616C41F00401B6
:101D50006164010707D502F02001314303D0616CB3
:101D600041F008016164616C00293AD0800604D515
:101D7000900602D5204601F0F4F820684069616CB5
:101D8000C0F38010090700D460B3204601F0B4F816
:101D900020684069400621D52068143050E8001FB3
:101DA00021F0400140E80012002AF5D1E06BA8B113
:101DB0006D494163E06BFEF745FE002811D0E06BF2
:101DC000416B01B0BDE8F040084783060FD593068C
:101DD0000DD52046BDE8F84001F0C3B82046FFF716
:101DE0008DFFF8BD2046FFF789FF6564F8BD266BBF
:101DF0002023012E7CD1C6067AD5D60678D5086870
:101E00004868009048694FF00206400640D5E16BF3
:101E1000086840680004000CE8D0A28D8242E5D931
:101E2000E085886920282DD020680C3050E8001FFC
:101E300021F4807140E80012002AF5D120681430A6
:101E400050E8001F21F0010140E80012002AF5D1FE
:101E50002068143050E8001F21F0400140E80012D3
:101E6000002AF5D184F84230256320680C3050E810
:101E7000001F21F0100140E80012002AF5D1E06BAC
:101E8000FEF7BCFD6663A08DE18D401A81B22AE0A9
:101E9000A08DE18D401A81B2E08D0028A6D00029E6
:101EA000A4D022680C3252E8000F20F4907042E86F
:101EB0000007002FF5D12068143050E8002F22F0E1
:101EC000010240E80027002FF5D184F84230256355
:101ED00020680C3050E8002F22F0100240E8002368
:101EE000002BF5D166632046FFF7D4FEF8BDFFE76F
:101EF00005062BD5150629D594F841002128F5D1E2
:101F0000A068B0F5805F01D12069B0B1206A411CA2
:101F10002162216800784860E08C401E0004000CBB
:101F2000E084E3D12068C16821F08001C1602068AD
:101F3000C16841F04001C160D8E7206A0088C0F361
:101F400008004860206A801C2062E5E74006CDD585
:101F50005006CBD5CA68204622F04002CA6084F8F9
:101F6000413000F019F9C1E7FB2D000870B50400FD
:101F700004D094F84100002510B106E0012070BDA6
:101F800084F84050204600F023F8242084F84100D3
:101F90002068C16821F40051C160204601F042F878
:101FA0002068016921F4904101612068416921F0B4
:101FB0002A0141612068C16841F40051C160656433
:101FC000202084F8410084F842006563002070BD41
:101FD000F0B585B000240094019402940394064661
:101FE0003E4F03683E48022103223E4DBB4221D1B1
:101FF000836943F480438361836903F480430493DA
:10200000836943F0040383618069039200F0040054
:1020100004900802CDE9000169462846FEF780FEDB
:102020002815CDE90004694628460294FEF778FE9B
:1020300005B0F0BD2C4FBB42FAD1C36943F4003365
:10204000C361C36903F400330493836943F0040359
:1020500083618069039200F0040004900420CDE9BC
:10206000000169462846FEF75BFE0820CDE9000422
:10207000694628460294FEF753FE1D4D1B488027F3
:10208000C5E90004C5E902472C616C61AC612846D2
:10209000EC61FEF7CDFD08B1FEF7AEFCF5636E62B4
:1020A000134D12484435143001C5102091C5104815
:1020B00045F8104944306C61AC61EC61FEF7B8FD45
:1020C00008B1FEF799FCB5630022012126206E625B
:1020D000FFF718F92620FFF707F9A9E700380140B4
:1020E0000010024000080140004400406C00024023
:1020F000D4070020704770472DE9F843044690F854
:102100004100984616460D46202802D00220BDE820
:10211000F88385B17EB100206064212084F84100FD
:10212000FEF7F8FEA6848146E684A0682027B0F575
:10213000805F02D003E00120E9E7206910B12E465C
:1021400000250EE000260CE08021204601F00EF86C
:10215000A8B9C6B116F8010B21684860E08C401E92
:10216000E084E08C4B464FF00002CDF80080002860
:10217000EAD14FF04001204600F0F8FF40B184F86A
:1021800041700320C3E735F8020BC0F30800E3E712
:1021900084F841700020BAE77047FEE701684A6999
:1021A000D24352050FD46FF480624A61002140F897
:1021B000301F202242738173026942F004020261DF
:1021C0000173012070470020704700002DE9F8439B
:1021D000044600680D46DDE90897016898461646F2
:1021E00041F4807101604B4600224FF001112046FE
:1021F000009700F06BF848B120680068C00502D570
:102200004FF4007020640320BDE8F883216805F0D6
:10221000FE0008613B464A461549204600F09EF8FC
:1022200088B920684169806900903A46494620464D
:1022300000F0F2F848B1206C042804D1206801684D
:1022400041F4007101600120DEE7F5B2B8F1010F41
:1022500009D02168300A08613A464946204600F014
:10226000DBF80028E7D1206805610020CCE70000FA
:102270000200010070B516460D4604461EE02046D9
:10228000FFF78CFF08B1012070BD681C16D0FEF767
:1022900041FE801BA84200D885B920684069C04330
:1022A00040070BD5002044F8300F20216173A07344
:1022B000216941F0200121612073E4E72068406931
:1022C000C0434007DBD4002070BD00002DE9F0477B
:1022D000984617460D460446C1F30746DDF82090A0
:1022E0002AE000BFB8F1FF3F26D0FEF713FEA0EBB7
:1022F0000901414502D8B8F1000F1DD12068012E17
:1023000016D0806925EA00000004000C12D00020DD
:10231000B84211D1002044F8300F20216173A0731E
:10232000216941F02001216120730120BDE8F0877F
:102330004069E7E70120EBE72068012E0AD08069B9
:1023400025EA00000004000C06D00020B842C9D0E5
:102350000020EBE74069F3E70120F7E72DE9F047BC
:10236000984616460D4604464FF000094FF0200AE5
:10237000C1F3074723E020684069C043400515D4F6
:102380002068016841F40071016021686FF4806089
:102390004861C4F8309084F83DA084F83E90216CE8
:1023A00041F00401216484F83C9021E0701C06D0C7
:1023B000FEF7B0FDA0EB0800B04203D816B1012F24
:1023C0001FD021E02068012F15D0806925EA000088
:1023D0000004000C18D000BF44F8309F84F80DA012
:1023E00084F80E90216941F02001216184F80C905D
:1023F0000120BDE8F087406925EA00000004000CD8
:10240000EAD12068406901E02068806925EA00007F
:102410000004000CAFD1ECE770B516460D4604463B
:102420001EE02046FFF7BAFE08B1012070BD681C0F
:1024300016D0FEF76FFD801BA84200D885B9206832
:102440004069C04300060BD5002044F8300F20211E
:102450006173A073216941F0200121612073E4E7D9
:1024600020684069C0430006DBD4002070BD000036
:102470000D4808B5416941F0010141614069002200
:1024800000F00100009011461020FEF73BFF1020E5
:10249000FEF72AFF002211461120FEF733FFBDE8A8
:1024A00008401120FEF720BF001002402DE9F04146
:1024B00086B000243048009401940294039481690A
:1024C00041F010018161816901F01001049181697D
:1024D00041F020018161816901F02001049181694D
:1024E00041F004018161816901F004010491816975
:1024F00041F0080181618069012200F008001F4F4E
:102500005503049029463846FEF7FFFCDFF870803B
:10251000002203214046FEF7F8FC00950226012523
:102520000396CDE9015469463846FEF7F9FB0320CE
:10253000CDE90005CDE9024669464046FEF7F0FBCD
:10254000104FF020CDE90007694602944046FEF79F
:10255000E7FBCDE900540C4D694628460294FEF78E
:10256000DFFB0096CDE9017469462846FEF7D8FBEB
:1025700006B0BDE8F08100000010024000100140EC
:102580000008014000001110000C01400D4810B57A
:102590000B4901600C49416000214FF48042816089
:1025A000C0E9031241618161C1610162FEF7B8FCBB
:1025B000002803D0BDE81040FEF71EBA10BD000091
:1025C00000580040A8060020A08601002DE9F04137
:1025D00086B00025384800950195029503958169DC
:1025E00041F010018161816901F01001049181695C
:1025F00041F020018161816901F02001049181692C
:1026000041F004018161816901F004010491816953
:1026100041F0080181618069012200F00800049006
:1026200051032648FEF771FC032601AA0124022764
:102630000096DFF88C8082E8B00069464046FEF7DD
:102640006FFB20028DE8B1001E4F69463846FEF749
:1026500067FB1D4DF020CDE9000569460294404618
:10266000FEF75EFB0096CDE9015469463846FEF759
:1026700057FB002211460620FEF744FE0620FEF717
:1026800033FE002211460720FEF73CFE0720FEF72E
:102690002BFE012202210A20FEF734FE0A20FEF75B
:1026A00023FE002202211720FEF72CFE1720FEF742
:1026B0001BFE06B0BDE8F081001002400010014092
:1026C00000080140000C01400000211010B586B048
:1026D00000241B4800940194029403940494174925
:1026E0000594016041F61F41C0E9011442F20F71E7
:1026F000C0E903148461FFF7EDF808B1FEF77CF937
:102700004FF48050009069460D48FFF751F908B129
:10271000FEF772F9049404A909480594FFF7A6F896
:1027200008B1FEF769F9002202211E20FEF7EAFD3A
:102730001E20FEF7D9FD06B010BD000000080040C5
:10274000FC0600200C4810B50A4901604FF4E13145
:102750004160002181600C22C160C0E904128161E6
:10276000C161FFF703FC002803D0BDE81040FEF76D
:1027700043B910BD00380140440700200C4810B593
:102780000A4901604FF416514160002181600C221A
:10279000C160C0E904128161C161FFF7E7FB002855
:1027A00003D0BDE81040FEF727B910BD004400403B
:1027B0008C070020FEE7FEE730B40021084B0A46F4
:1027C0005FF0000003EBC004401CC0B262548028DC
:1027D000F8D3491CC9B20829F2D330BC00F0ACB818
:1027E0002800002030B1012807D100215FF0A700A8
:1027F00000F042BA0021A620FAE7704710B558B1A0
:10280000012810D10021C02000F036FA0021A020BC
:10281000BDE8104000F030BA0021C82000F02CFACA
:102820000021A120F4E710BD30B5CC0801F007036A
:1028300001259D40EBB2064D05EBC005C808285C9C
:102840000AB1184302E063EA0000C043285530BDD6
:102850002800002010B54FF49670FEF74FFA0021C3
:10286000AE2000F009FA0021084600F005FA002128
:10287000102000F001FA0021402000F0FDF90021B5
:10288000812000F0F9F90021CF2000F0F5F90021B6
:10289000A12000F0F1F90021C82000F0EDF900219D
:1028A000A62000F0E9F90021A82000F0E5F90021B8
:1028B0003F2000F0E1F90021D32000F0DDF90021F4
:1028C000084600F0D9F90021D52000F0D5F9002103
:1028D000802000F0D1F90021D92000F0CDF90021AD
:1028E000F12000F0C9F90021DA2000F0C5F900213B
:1028F000122000F0C1F90021DB2000F0BDF9002119
:10290000302000F0B9F90021202000F0B5F90021B5
:10291000022000F0B1F900218D2000F0ADF9002176
:10292000142000F0A9F9FFF747FF0021BDE810408F
:10293000AF2000F0A1B9000070B5A4B0164E00247D
:102940000DF10C0504F1B000C0B2002100F094F9C3
:102950000021084600F090F90021102000F08CF9C9
:102960005FF0000006EBC001095D2954401CC0B2B5
:102970008028F7D34FF4807080210095CDE90110B5
:102980000123402278210548FEF78EFB641CE4B247
:10299000082CD7D324B070BD28000020A806002042
:1029A0002DE9FC4F1C460E4682468B460190082BB3
:1029B0000DD0600700D0012000EBD400610848432F
:1029C000C0B28146203AD0B2009000204BE00620F1
:1029D000F7E7082C13D00C2C18D0102C1BD0182C77
:1029E00044D10098234900EBC00000BF01EB8001F7
:1029F000002711F80850E80712D00B9A13E000984E
:102A00001D4900EB400001EB4001F1E700981B4934
:102A100000EB4000EAE71A49009801EB0011E7E7F4
:102A20000B9828B3002231465046FFF7FDFE761C76
:102A30007F1C6D08FFB2F6B2082FDCD30AF101004B
:102A400000F0FF0A082C0AD00199AAEB0100B0EBB4
:102A5000540F04D10BF108008A4600F0FF0B08F177
:102A600001005E46C0B280464845B2D3BDE8FC8F47
:102A70000122D8E7284900089C3C0008C43E000811
:102A8000384300082DE9F8411E461546884604469D
:102A9000079F0BE03346414620460097FFF780FF33
:102AA000082E0AD004EB5600C4B26D1C2A78A2F19D
:102AB00020005E28EED9BDE8F881A41DE4B2F4E759
:102AC00000B5144887B0016905290CD2DFE801F090
:102AD0000306191C1F0082890FA101E0427811A191
:102AE00001A800F099FBFFF767FE0120002100908C
:102AF000102301AA0846FFF7C5FFFFF71DFF07B027
:102B000000BD82780AA1EBE7C2780CA1E8E7027960
:102B10000DA1E5E700000020596561723A202530DB
:102B2000346400004D6F6E74683A202530326400C2
:102B30004461793A2025303264000000486F757294
:102B40003A202530326400004D696E7574653A2074
:102B5000253032640000000000B589B001280FD094
:102B60000AA101A800F058FB01200090102301AA3F
:102B700020210020FFF786FFFFF7DEFE09B000BD31
:102B80000A4605A101A800F047FBEDE749523A20AB
:102B90004E6F206F6E65000049523A20536F6D658D
:102BA0006F6E65202564000000B509A385B00FCBCA
:102BB0000DF1040C8CE80F0001200090102301AAF5
:102BC00030210020FFF75EFFFFF7B6FE05B000BD25
:102BD000486F6D65206E6F206F776E657200000024
:102BE0002DE9F04794B01D46DDE91C9A14460E46C7
:102BF000804600F0A9FF07461C22154902A8FDF7F0
:102C0000A3FA3346424613A109A8CDE9004500F0D6
:102C100003FB02A8534650F8270000904A4612A131
:102C20000EA800F0F9FA01240021102309AA084691
:102C30000094FFF727FF10230EAA194600200094E6
:102C4000FFF720FFFFF778FE14B0BDE8F087000023
:102C50003C5A0008253034642D253032642D25304F
:102C60003264202530326400253032643A25303217
:102C7000642025730000000003B583B0012203AB7C
:102C8000CDE900324FF480700290134609B1402222
:102C900000E0002278210248FEF706FA05B000BDE8
:102CA000A806002070477047FEF7C6BA30B58FB04F
:102CB00028216846FDF761FA14210AA8FDF75DFA9C
:102CC00001210804CDE9001000240294022504919A
:102CD000CDE907504FF4E01009906846FEF720FC5C
:102CE00008B172B6FEE70F20CDE90A054FF4806007
:102CF000CDE90C4002210AA80E94FEF735FB00280E
:102D000001D072B6FEE70FB030BD70470148FEF744
:102D1000BEBE0000FC060020F0B50268194B1A4C3C
:102D20001A4D4FF08047984205D0B84203D0A042D8
:102D300001D0A84203D122F070064A68324398427B
:102D400005D0B84203D0A04201D0A84203D122F45A
:102D50004074CA6822434C6922F080022243026018
:102D60008A68C2620A688262984201D10969016375
:102D7000012141610169C90703D0016921F0010105
:102D80000161F0BD002C014000040040000800403B
:102D900010B5846842EA032224F47F440A432243A4
:102DA000826010BD826822F070020A4342F007017F
:102DB0008160704710B5036A046A24F0010404625C
:102DC000846924F0F00444EA021423F00A020A435E
:102DD0008461026210BD10B5036A046A24F0100415
:102DE0000462846923F0A00324F4704444EA0232AC
:102DF00043EA01118261016210BD10B5406A0021F1
:102E0000C185C184FEF77AFF10BD70B5446A2068A1
:102E1000406994F84110C0F3C0100025212904D165
:102E200018B1E584204600F08EF82068406994F8D7
:102E30004210C0F38010222904D118B1E585204644
:102E400000F05AF8606C40F0100060642046FEF715
:102E500055FF70BD10B50146406A096809684FF01A
:102E6000000289062ED4C28501680C3151E8003F6A
:102E700023F4807341E80034002CF5D1016814314B
:102E800051E8003F23F0010341E80034002CF5D164
:102E90000168143151E8003F23F0400341E8003459
:102EA000002CF5D1202180F84210016B012909D1B5
:102EB00001680C3151E8003F23F0100341E8003471
:102EC000002CF5D14263016B012902D0FFF712F902
:102ED00010BD818DFEF7DEFE10BD10B5406A0121E8
:102EE0004163016B012902D0FFF705F910BD818D07
:102EF0004908FEF7CFFE10BD01680C3151E8002FE4
:102F000022F4907241E80023002BF5D101681431BE
:102F100051E8002F22F0010241E80023002BF5D1F7
:102F2000016B012909D101680C3151E8002F22F011
:102F3000100241E80023002BF5D1202180F8421037
:102F400000210163704701680C3151E8002F22F025
:102F5000C00241E80023002BF5D1202180F8411068
:102F6000704708B590F84210222901D0022008BD10
:102F700082684FF480539A4201D1016921B1816A7C
:102F80009A421BD04AB10AE00268816A5268C2F3D1
:102F900008020A80816A891C08E0026972B102682D
:102FA000526802F07F020A70816A491C8162C18DF9
:102FB000491E0904090CC18503D01BE00268526850
:102FC000F1E70168CA6822F02002CA600168CA6895
:102FD00022F48072CA6001684A6922F001024A61E3
:102FE000202180F8421000214163026B012A03D0A6
:102FF000FFF780F8002008BD016301680C3151E83B
:10300000002F22F0100241E80023002BF5D10168C7
:103010000A68D20602D50A6849680091818DFEF7D8
:1030200039FEE7E770B5044600680169E26821F4FB
:103030004051114301612169A06808436169084357
:103040002168CA6841F20C639A430243CA6020684F
:103050004169A26921F44071114341611E49206810
:10306000884202D1FEF726FA01E0FEF713FA00EBE0
:10307000C00101EB0012606864218000B2FBF0F334
:10308000B3FBF1F36FF018067343B2FBF0F5B2FB3C
:10309000F0F605EB8305322303EB0515B5FBF1F5DF
:1030A000B6FBF1F605F0F00505EB0615B2FBF0F600
:1030B000B2FBF0F0B0FBF1F06FF01802504306EBFA
:1030C000800003EB0010B0FBF1F0216800F00F006E
:1030D0002844886070BD00000038014038B5816226
:1030E00004468285002013466064222284F8422030
:1030F000E56B1B4AAA62E56B1A4AEA62E56B1A4A5B
:103100002A63E26B50630A462168E06B091DFDF7F4
:10311000BDFD2068016840680090206948B12068C2
:103120000C3050E8001F41F4807140E80012002A82
:10313000F5D12068143050E8001F41F0010140E84B
:103140000012002AF5D12068143050E8001F41F029
:10315000400140E80012002AF5D1002038BD0000EF
:10316000552E0008DB2E00080B2E00082DE9F84331
:10317000984617460D460446089E24E0701C22D04F
:10318000FDF7C8FEA0EB0800B0421AD8CEB1206807
:10319000C168490717D5802D15D0402D13D001687F
:1031A000C94309070FD401680025406800902046F4
:1031B000FFF7A2FE0820606484F840500120BDE8BB
:1031C000F8830320FBE72068006835EA000004D09C
:1031D0000020B842D2D00020F1E70120F9E700003A
:1031E0000148FEF78DBD00008C07002008B507A040
:1031F0004FF47A7300680090042269460448FEF791
:103200007BFF002801D072B6FEE708BDAA0200AC21
:103210008C070020FEE700000FB4084B10B504A98E
:1032200002AA039800F0EEF8044602A9002000F07C
:103230006CFC204610BC5DF814FB00000B3B000842
:103240000907090E002804DB00F1E02080F80014D3
:10325000704700F00F0000F1E02080F8141D704767
:1032600002E008C8121F08C1002AFAD1704770474F
:10327000002001E001C1121F002AFBD170470000AD
:103280002DE9FF5F82B00021DDE90430020DDDF899
:1032900040B0034318D044F61050A2F2FF3242432C
:1032A0001514119801281FD0A5EB0B00401C5FEAF4
:1032B000000A4FF000064E4FDFF83891B0465046F6
:1032C00015D5CAF1000413E0119801244AA301287E
:1032D00001D16FEA0B010298119AC0E90031C0E9EF
:1032E000024206B0BDE8F09FCBF10000DFE70446E4
:1032F0000021404A491842EB0450CDE9001012E089
:10330000E00707D032463B4640464946FCF7F9FF06
:103310008046894632463B4610461946FCF7F1FF87
:1033200006460F466410002CEAD1DDE90401DDE910
:103330000023BAF1000F06DAFCF7E3FF42464B46E2
:10334000FCF7DFFF05E0FDF74EF842464B46FDF780
:103350004AF804460E460022284BFDF791F903D89F
:103360004FF0FF30014607E00022254B2046314652
:10337000FCF720FFFDF76BF9102409E0002C0ADBB5
:103380000A220023FDF7B4F8039B30321A55641E5D
:1033900050EA0102F2D1641C039AC4F111031444EF
:1033A000119A012A03D0012208430DD10AE00843F3
:1033B00004D000204FF0110B119072E7A3EB0B0526
:1033C0006D1E0DE05B4504DD4FF0000205F10105C7
:1033D00004E003DA4FF00002A5F10105002AECD069
:1033E00002981199C0E90231C0E9004579E700006F
:1033F000000014400000F03F300000000000F043E7
:103400000000E03F2DE9FF4F95B09A4688460646FA
:103410000025EEE1252877D100242746F94A01212D
:10342000039400E0044316F8013F203B01FA03F047
:103430001042F7D130782A2811D06FF02F0330785E
:10344000A0F13002092A16D8039A44F0020402EBD4
:10345000820203EB42021044761C0390EFE758F817
:10346000042B0392002A03DA504244F400540390E0
:1034700044F00204761C30782E2816D116F8010F7D
:1034800044F004042A280DD06FF02F023078A0F108
:103490003003092B09D807EB870302EB4303C71856
:1034A000761CF3E758F8047B761C30786C280FD034
:1034B00006DC4C2817D068280DD06A2814D104E007
:1034C000742810D07A280FD10DE044F400140AE0DB
:1034D00044F4801401E044F440147278824202D132
:1034E00004F58014761C761C307866280BD013DC2B
:1034F000582877D009DC002875D04528F6D0462812
:10350000F4D047281AD193E118E0632835D0642815
:1035100079D0652812D18BE1702873D008DC672838
:10352000F1D069286FD06E280DD06F2806D1ACE09D
:1035300073282CD0752874D0782853D05246179908
:1035400090476D1C54E1C4F30250022809D00328AF
:103550000DD0D8F8001004280DD00D6008F1040833
:1035600046E1D8F80010EA17C1E90052F6E7D8F8AA
:1035700000100D80F2E70D70F0E718F8041B8DF8CD
:10358000001000208DF80100EB46012003E058F800
:1035900004BB4FF0FF3061074FF0000102D40DE093
:1035A00009F101018946B9420FDA8145F8DB1BF8C0
:1035B00009100029F4D108E009F10101894681428E
:1035C000FADB1BF809100029F6D103985346A0EB4B
:1035D000090721463846179A00F080FA284400EB84
:1035E000090507E044E008E10DE01BF8010B524635
:1035F00017999047B9F10109F7D253462146384649
:10360000179AF2E039E00A21C4F302524FF0000B9E
:103610000091022A06D058F8040BC117032A09D0DA
:103620000AE023E008F1070020F00702F2E80201B7
:10363000904605E000B2C117042A01D140B2C1177B
:10364000002906DA0A460021404261EB02012D22E0
:1036500002E0220504D52B228DF80420012203E08C
:10366000E20701D02022F7E7914657E00A2100E067
:1036700010214FF0000B00910BE010214FF0000BD8
:1036800044F004040827009103E008204FF0000BE9
:103690000090C4F30252022A05D058F8040B00210E
:1036A000032A08D008E008F1070020F00702F2E83A
:1036B0000201904603E080B2042A00D1C0B24FF06C
:1036C000000922072AD53278702A07D0DDF800C019
:1036D0008CF0100C5CEA0B0C05D00EE040228DF84B
:1036E0000420012208E050EA010306D030238DF8BF
:1036F00004308DF8052002229146009B83F00803D8
:1037000053EA0B030AD150EA010201D1620705D541
:1037100030228DF804204FF001097F1E3278582A9C
:1037200004D039A20C920CAA02920BE03BA2F9E75A
:103730005B46009AFCF7DCFE0C9B9B5C029A521ED7
:103740000292137050EA0102F2D1029804A9081AF9
:1037500000F1200B600702D524F4803400E001273B
:103760005F4502DDA7EB0B0000E0002000EB0B0142
:10377000009003984944401A0390E00306D453464E
:103780002146179A039800F0A9F90544002706E09E
:1037900001A85246C05D179990476D1C7F1C4F458C
:1037A000F6DBE0030CD553462146179A039800F048
:1037B00095F9054404E030205246179990476D1C56
:1037C0000099481E00900029F5DC08E00298029953
:1037D00052460078491C0291179990476D1CBBF125
:1037E0000001ABF1010BF1DC5BE100F065F9054490
:1037F000761C307800287FF40DAE19B02846BDE85D
:10380000F08F00000928010030313233343536376B
:10381000383961626364656600000000303132331C
:1038200034353637383941424344454600000000BC
:10383000600700D4062708F1070020F00700F0E831
:103840000223804603F0004C5FEA0C0001D097A0F1
:1038500009E0200501D596A005E0E00701D095A07C
:1038600001E0AFF24C001390307823F0004365285C
:103870000CD006DC452809D046281DD047287FD12A
:103880003BE0662818D067287AD136E00021112F56
:1038900001DB112000E0781CCDE9000104A90CA88F
:1038A000FFF7EEFCDDE90D010C9A4FF0000B07F17C
:1038B0000109109200914EE04FF000400097CDE9D1
:1038C000011004A90CA8FFF7DBFCDDE90D020C9B3D
:1038D0000F994FF0000B91461093009211B9791C8B
:1038E00000EB0109B7EB090003D4C0F1FF3B07F17E
:1038F0000109A9EB0700019042E0012F00DA01273E
:103900000021112F01DD112000E03846CDE9000132
:1039100004A90CA8FFF7B4FCDDE90D010C9A009195
:103920004FF0000BB946109221070FD4009A4A4578
:1039300003DA914601E0A9F10109B9F1010F05DDB2
:10394000109AA9F10101515C3029F4D0B84202DA91
:1039500010F1040F03DA0121CDE9011010E0002875
:1039600003DC8344A9EB000102E0411C494500DD72
:103970008946A0EB0B00401C01904FF000400290E4
:10398000200705D40198484502DB4FF0FF30019035
:1039900000208DF84B0002980DF14B07B0F1004F5D
:1039A00025D002200C902B200D90029800280CDAD4
:1039B000404202902D200D9007E00A210298FCF76A
:1039C00081FD3031029007F8011D0C99481E0C90C2
:1039D0000029F2DC02980028EFD1791E0D980870BA
:1039E000307800F0200040F0450007F8020D11A8E3
:1039F000C01BC01D02901398007800B1012000EB9D
:103A00000901019801EBE071029801440398401A02
:103A1000401E0390E00306D453462146179A0398AC
:103A200000F05CF805441398007818B152461799D5
:103A300090476D1CE00323D553462146179A0398FF
:103A400000F04CF805441BE0BBF1000F07DB0098C9
:103A5000584504DD1098179910F80B0001E01799EC
:103A600030205246904701980BF1010B401E05F1A2
:103A70000105019004D12E205246179990476D1CE4
:103A8000B9F10001A9F10109DEDC05E017F8010B2D
:103A90005246179990476D1C0299481E02900029C2
:103AA000F4DC53462146179A03989EE62D00000049
:103AB0002B000000200000002DE9F0410446002505
:103AC0001E461746880404D405E039462020B04736
:103AD0006D1C641EF9D52846BDE8F0812DE9F04142
:103AE000044600251E469046C80301D5302700E055
:103AF0002027880404D505E041463846B0476D1CB0
:103B0000641EF9D52846BDE8F0810A68531C0B6095
:103B10001070704730B58DB00D460446302209490B
:103B20006846FCF711FB022C06D1284600F02EF85F
:103B300010B11D200DB030BD684600EB840050F878
:103B4000040CF7E70C5A000810B5022903D80C3111
:103B5000401EC9B280B24B1C02EB410103EB430390
:103B60000524B3FBF4F36422B0FBF2F219440144E0
:103B700001EB9001891A4FF4C872B0FBF2F00844CF
:103B8000072190FBF1F201FB120010BD810705D166
:103B90006421B0FBF1F201FB120141B94FF4C8718D
:103BA000B0FBF1F201FB120008B1002070470120C8
:103BB0007047000008B50024FDF746FBFFF776F8D4
:103BC000FEF774FCFEF702FDFEF752FCFEF7BAFDAD
:103BD000FEF77CFDFEF7D2FDFEF7D8FC2448FDF78A
:103BE00079FE2348FDF7B8FEFEF734FE0020FEF70D
:103BF000F9FD0020FEF702FE012510231DA2194643
:103C00001C200095FEF73EFF10231DA220211C2042
:103C10000095FEF737FFFEF78FFE6A021B491C482E
:103C2000FEF713F81B480068016821F004010160E9
:103C3000FEF7C2FD4FF47A70FDF760F86E034FF4A3
:103C4000FA67154DFCF748FD641CA4B2BC420AD3C8
:103C5000002231462846FDF758F90024012231465A
:103C60002846FDF752F90120FDF748F8EAE7000081
:103C7000FC06002057656C636F6D6520746F000053
:103C8000546869732053797374656D00A80400202B
:103C90008C070020D4070020001001400000000025
:103CA00000000000002F00000000070007000014C3
:103CB0007F147F1400242A7F2A12006264081323D1
:103CC00000364955225000000503000000001C2268
:103CD0004100000041221C000014083E08140008A6
:103CE000083E0808000000A0600000080808080856
:103CF000000060600000002010080402003E5149EE
:103D0000453E0000427F400000426151494600218B
:103D100041454B31001814127F10002745454539A5
:103D2000003C4A4949300001710905030036494900
:103D3000493600064949291E0000363600000000B9
:103D40005636000000081422410000141414141404
:103D500000004122140800020151090600324959AD
:103D6000513E007C1211127C007F49494936003EC9
:103D700041414122007F4141221C007F4949494184
:103D8000007F09090901003E4149497A007F08087E
:103D9000087F0000417F4100002040413F01007F3B
:103DA00008142241007F40404040007F020C027F07
:103DB000007F0408107F003E4141413E007F090919
:103DC0000906003E4151215E007F0919294600463F
:103DD000494949310001017F0101003F4040403F16
:103DE000001F2040201F003F4038403F0063140860
:103DF000146300070870080700615149454300003B
:103E00007F41410000552A552A55000041417F005D
:103E10000004020102040040404040400000010252
:103E20000400002054545478007F4844443800383B
:103E30004444442000384444487F003854545418C3
:103E400000087E0901020018A4A4A47C007F0804D5
:103E500004780000447D4000004080847D00007FA5
:103E6000102844000000417F4000007C04180478C2
:103E7000007C0804047800384444443800FC2424BE
:103E800024180018242418FC007C080404080048A6
:103E90005454542000043F444020003C4040207CC7
:103EA000001C2040201C003C4030403C00442810B6
:103EB0002844001CA0A0A07C004464544C4414146A
:103EC00014141414000000000000000000000000A2
:103ED0000000FC000000000002000000000C020CCA
:103EE000020000000000000090D0BCD0BC90000395
:103EF000000300001824FE448C00030207020100A6
:103F00001824D8B04C80000300010201C038E43806
:103F1000E0000102020102020806000000000000A9
:103F200000000000000000F804020000000102048C
:103F3000000204F800000004020100009060F86034
:103F400090000000010000002020FC202000000064
:103F50000100000000000000000008060000000052
:103F600020202020200000000000000000000000B1
:103F700000000002000000000080601C020004033A
:103F800000000000F8040404F8000102020201002D
:103F90000008FC0000000002030200001884442412
:103FA000180003020202020008042424D8000102BF
:103FB0000202010040B088FC800000000003020003
:103FC0003C242424C400010202020100F824242C11
:103FD000C0000102020201000C04E41C0400000005
:103FE00003000000D8242424D800010202020100AA
:103FF00038444444F80000030202010000001000AD
:10400000000000000200000000002000000000008E
:104010000600000000205088040200000000010299
:104020009090909090000000000000000002048832
:1040300050200002010000001804C42418000000F1
:1040400002000000F804E494F800010202020200F9
:1040500000E09CF0800002030000030204FC242422
:10406000D800020302020100F80404040C0001025B
:104070000202010004FC0404F80002030202010031
:1040800004FC24740C0002030202030004FC2474E8
:104090000C00020302000000F0080444CC400001C0
:1040A0000202010004FC2020FC04020300000302C1
:1040B0000404FC040400020203020200000404FCE5
:1040C000040406040403000004FC24D00C040203CE
:1040D0000200030204FC04000000020302020203C7
:1040E000FC3CC03CFC0003000300030004FC30C4A3
:1040F000FC04020302000300F8040404F8000102B7
:104100000202010004FC2424180002030200000043
:10411000F8848404F80001020207050004FC24640A
:104120009800020302000302182424448C000302B6
:10413000020201000C04FC040C0000020302000057
:1041400004FC0000FC04000102020100047C80E089
:104150001C040000030000001CE03CE01C00000305
:1041600000030000049C609C0400020300030200A2
:10417000041CE01C04000002030200000C84641C08
:1041800004000203020203000000FE02020000001D
:1041900007040400000E30C000000000000102000F
:1041A000000202FE000000040407000000040204F4
:1041B00000000000000000000000000000000808EF
:1041C00008080808000002000000000000000000CD
:1041D0000040A0A0C00000010202030204FC202055
:1041E000C00000030202010000C0202060000001A6
:1041F0000202020000C02024FC00000102020302AF
:1042000000C0A0A0C0000001020202000020F824AB
:1042100024040002030202000040A0A06020000766
:104220000A0A0A0404FC2020C00002030200030260
:104230000020E4000000000203020000000020E46F
:10424000000008080807000004FC80E020200203AA
:10425000020003020404FC00000002020302020048
:10426000E020E020C00003000300030020E0202045
:10427000C00002030200030200C02020C0000001B1
:104280000202010020E02020C000080F0A02010005
:1042900000C02020E0000001020A0F0820E04020BA
:1042A00020000203020000000060A0A02000000225
:1042B000020203000020F8200000000001020200BA
:1042C00020E00020E00000010202030220E0208044
:1042D00060200000030100006080E08060000003B7
:1042E0000003000020608060200002030003020041
:1042F00020E0208060200808070100000020A06066
:104300002000000203020200000020DE0200000084
:1043100000070400000000FF00000000000F000084
:104320000002DE2000000004070000000201020479
:104330000402000000000000000000000000000077
:104340000000000000000000000000F80000000075
:10435000000000333000000000100C06100C0600B6
:10436000000000000000000040C07840C07840001D
:10437000043F04043F040400007088FC083000007F
:10438000001820FF211E0000F008F000E0180000D7
:1043900000211C031E211E0000F008887000000090
:1043A0001E2123241927211010160E0000000000E2
:1043B0000000000000000000000000E018040200FF
:1043C000000000071820400000020418E000000070
:1043D0000040201807000000404080F0804040006E
:1043E0000202010F01020200000000F000000000C4
:1043F0000101011F01010100000000000000000098
:1044000080B070000000000000000000000000000C
:104410000001010101010101000000000000000095
:104420000030300000000000000000008060180430
:10443000006018060100000000E010080810E0000D
:10444000000F102020100F00001010F800000000D6
:104450000020203F2020000000700808088870001D
:10446000003028242221300000300888884830009D
:104470000018202020110E000000C02010F80000BD
:1044800000070424243F240000F808888808080056
:104490000019212020110E0000E01088881800006B
:1044A000000F112020110E0000380808C83808003D
:1044B0000000003F000000000070880808887000BD
:1044C000001C222121221C0000E010080810E0003E
:1044D0000000312222110F00000000C0C0000000C7
:1044E00000000030300000000000008000000000EC
:1044F00000008060000000000000804020100800E4
:1045000000010204081020004040404040404000AC
:104510000404040404040400000810204080000087
:104520000020100804020100007048080808F0008C
:104530000000003036010000C030C828E810E0005C
:104540000718272423140B000000C038E0000000E7
:10455000203C23020227382008F888888870000051
:10456000203F202020110E00C03008080808380025
:10457000071820202010080008F808080810E0009C
:10458000203F202020100F0008F88888E80810003D
:10459000203F20202320180008F88888E808100011
:1045A000203F200003000000C03008080838000049
:1045B00007182020221E020008F808000008F8084A
:1045C000203F210101213F20000808F808080000D1
:1045D0000020203F2020000000000808F808080004
:1045E000C08080807F00000008F888C0281808007C
:1045F000203F20012638200008F8080000000000B5
:10460000203F20202020300008F8F800F8F80800AB
:10461000203F003F003F200008F830C00008F808A5
:10462000203F200007183F00E01008080810E000B5
:104630000F10202020100F0008F808080808F000CC
:10464000203F210101010000E01008080810E000EF
:104650000F18242438504F0008F888888888700084
:10466000203F2000030C3020007088080808380024
:104670000038202121221C00180808F8080818001A
:104680000000203F2000000008F808000008F8089B
:10469000001F202020201F000878880000C838084C
:1046A000000007380E010000F80800F80008F800C4
:1046B000033C0700073C030008186880806818085E
:1046C00020302C03032C30200838C800C8380800DC
:1046D0000000203F2000000010080808C83808002B
:1046E0002038262120201800000000FE02020200CF
:1046F0000000007F40404000000C30C0000000007F
:10470000000000010638C00000020202FE000000A6
:10471000004040407F00000000000402020204004C
:104720000000000000000000000000000000000089
:104730008080808080808080000202040000000071
:104740000000000000000000000080808080000069
:104750000019242222223F2008F800808000000057
:10476000003F112020110E0000000080808000001A
:10477000000E112020201100000000808088F80029
:10478000000E112020103F2000008080808000005B
:10479000001F222222221300008080F088888818BF
:1047A0000020203F202000000000808080808000CA
:1047B000006B94949493600008F80080808000005F
:1047C000203F210000203F2000809898000000003A
:1047D0000020203F2020000000000080989800006A
:1047E00000C08080807F000008F80000808080008A
:1047F000203F24022D302000000808F800000000AF
:104800000020203F20200000808080808080800069
:10481000203F20003F20003F8080008080800000FB
:10482000203F210000203F20000080808080000089
:10483000001F202020201F008080008080000000BA
:1048400080FFA12020110E000000008080808000E9
:10485000000E112020A0FF808080800080808000DA
:1048600020203F2120000100000080808080800007
:104870000033242424241900008080E0808000007C
:104880000000001F202000008080000000808000C9
:10489000001F202020103F2080808000008080802A
:1048A00000010E30080601008080008000808080BA
:1048B0000F300C030C300F000080800080808000DF
:1048C0000020312E0E31200080808000008080800A
:1048D00080818E70180601000080808080808000BA
:1048E0000021302C2221300000000000807C0202D8
:1048F00000000000003F404000000000FF000000FA
:1049000000000000FF0000000002027C80000000A8
:104910000040403F000000000006010102020404C4
:104920000000000000000000000000000000000087
:104930000000000000000000000000000000000077
:104940000000000000000000000000000000000067
:1049500000F0F0F0000000000000000000017F0106
:104960000000000000000000001C1C1C00000000F3
:1049700000008060301C8C60301C0C0000000000C7
:104980000000000000000000000000000000000027
:1049900000000000000000E00000000000E0000057
:1049A0000086E69F86868686E69F860000011F01B8
:1049B000010101011F010100000080C06020F820FA
:1049C000E0C00000000003070C18FF70E181000048
:1049D0000000070F10107F100F070000806020609C
:1049E00080000000E02000000F3020309F70DC3796
:1049F0001030C0000000100E030007181018070048
:104A00000000C02020E0C0000000000080E01F384F
:104A1000E88703C43C040000070F1810100B070DB3
:104A20001010080000808C4C3800000000000000CE
:104A30000000000000000000000000000000000076
:104A4000000000000000000000000000000080E006
:104A5000300804000000000000FEFF01000000001C
:104A6000000000000000030F182040000004083080
:104A7000E0800000000000000000000001FFFE00D8
:104A800000000000004020180F030000000000009C
:104A9000000000000000C000000000000042666648
:104AA0003C18FF183C66664200000000000003004E
:104AB0000000000000000000000080000000000076
:104AC000001010101010FF10101010100000000047
:104AD00000000300000000000000000000000000D3
:104AE00000000000000000000000000000000000C6
:104AF00000808C4C38000000000000000000000026
:104B00000000000000000000001010101010101035
:104B10001010100000000000000000000000000065
:104B20000000000000000000000000000000000085
:104B3000000000000000000000001C1C1C00000021
:104B4000000000000000000000000000E0380C0041
:104B50000000000080701C03000000000060380EA0
:104B60000100000000000000000080C06020206004
:104B7000C080000000FEFF010000000001FFFE00F9
:104B80000001070E181010180E07010000008080A9
:104B900080C0E000000000000000000000FFFF00F7
:104BA0000000000000001010101F1F101010000067
:104BB0000080402020202060C0800000000303000F
:104BC000804020381F070000001C1A1918181818F8
:104BD000181F00000080C020202060C0800000005E
:104BE000000303001010182FE780000000070F10CB
:104BF000101010180F070000000000000000C0E0B7
:104C0000F000000000C0B088868180FFFF80800037
:104C1000000000000010101F1F1010000000E060D6
:104C2000606060606060000000003F1008080818C5
:104C3000F0E0000000070B101010101C0F03000024
:104C4000000080C040202020E0C0000000FCFF21C8
:104C50001008080818F0E0000001070C18101010E8
:104C6000080F03000000C0E06060606060E060006A
:104C7000000003000000E018070000000000000032
:104C8000001F1F00000000000080C06020202020C6
:104C900060C080000087EF2C1818303068CF830088
:104CA00000070F0810101010180F07000000C0C0F8
:104CB00020202020C0800000001F3F604040402096
:104CC00010FFFE0000000C1C101010080F03000065
:104CD00000000000000000000000000000000000D4
:104CE000000E0E0E0000000000000000001C1C1C46
:104CF00000000000000000000000000000000000B4
:104D000000000000000C0C0000000000000000008B
:104D10000058380000000000000000000000008083
:104D20004020100000001028448201000000000014
:104D30000000000000000102040810000000000054
:104D400000000000000000000084848484848484C7
:104D500084848400000000000000000000000000C7
:104D60000000102040800000000000000000000053
:104D70000000018244281000000010080402010015
:104D80000000000000C020201010101030E0C00013
:104D90000003030000F010080C07030000000000EF
:104DA0001C1C1C0000000000000000C0406020200F
:104DB0002040C00000FCFF01F00E03C1FE03807F15
:104DC0000001070E08111110110904020000000073
:104DD00080E0E000000000000000807C4340477F4E
:104DE000F880000010181F1000000000131F1C1096
:104DF00020E0E02020202060C080000000FFFF10A5
:104E0000101010182FE78000101F1F101010101026
:104E1000180F0700000080C0402020202060E00024
:104E200000FCFF0100000000000001000001070E6F
:104E3000181010100804030020E0E020202020407B
:104E4000C080000000FFFF000000000001FFFE0026
:104E5000101F1F10101018080E07010020E0E0209E
:104E6000202020202060800000FFFF101010107C08
:104E700000000000101F1F10101010101018060066
:104E800020E0E020202020206060800000FFFF1054
:104E90001010107C00000100101F1F100000000007
:104EA00000000000000080C06020202040E00000E2
:104EB00000FCFF0100004040C0C140400001070E5F
:104EC000181010100F0F000020E0E020000000007C
:104ED00020E0E02000FFFF101010101010FFFF0076
:104EE000101F1F1000000000101F1F1000002020C6
:104EF00020E0E020202000000000000000FFFF0074
:104F00000000000000001010101F1F101010000003
:104F100000000000202020E0E02020200000000011
:104F2000000000FFFF0000000060E0808080C07F84
:104F30003F00000020E0E020000020A060202000D2
:104F400000FFFF30187CE3C000000000101F1F109E
:104F5000000001131F1C181020E0E02000000000DA
:104F60000000000000FFFF00000000000000000043
:104F7000101F1F10101010101018060020E0E0E0A5
:104F800000000000E0E0E02000FF013FFEC0E01E66
:104F900001FFFF00101F1000031F0300101F1F1050
:104FA00020E0E0C0000000000020E02000FF00033F
:104FB000071C78E08000FF00101F100000000000B8
:104FC000030F1F00000080C060202060C080000030
:104FD00000FEFF010000000000FFFE000001070EC0
:104FE000181010180C07010020E0E02020202020DD
:104FF00060C0800000FFFF2020202020301F0F0015
:10500000101F1F100000000000000000000080C002
:1050100060202060C080000000FEFF010000000052
:1050200000FFFE000001070E1111133C7C672100F8
:1050300020E0E0202020202060C0800000FFFF1042
:105040001030F0D0080F0700101F1F1000000003E1
:105050000F1C10100080C060202020204040E00085
:1050600000070F0C1818303060E08100001F0C089A
:1050700010101010180F07008060202020E0E020A2
:10508000202060800100000000FFFF000000000100
:1050900000000000101F1F100000000020E0E020B2
:1050A000000000000020E02000FFFF0000000000E2
:1050B0000000FF0000070F18101010101008070064
:1050C0002060E0E02000000020E060200000077F7A
:1050D000F88000807C03000000000000071F1C0710
:1050E0000000000020E0E02000E0E0200020E020C0
:1050F0000007FFF8E01FFFFCE01F00000000031F97
:105100000300011F03000000002060E0A000002059
:10511000E0602000000000038F7CF8C60100000062
:105120000010181E130001171F1810002060E0E087
:105130002000000020E06020000001073EF8E01899
:105140000700000000000010101F1F1010000000DA
:1051500000806020202020A0E0E02000000000006F
:10516000C0F03E0F0300000000101C1F17101010AD
:10517000101806000000000000FC040404040400F1
:105180000000000000FF0000000000000000000020
:10519000007F404040404000000010E00000000060
:1051A0000000000000000000031C60800000000000
:1051B00000000000000000030C70800000000404E8
:1051C000040404FC0000000000000000000000FFD8
:1051D00000000000000040404040407F0000000010
:1051E00000000010080C040C081000000000000073
:1051F00000000000000000000000000000000000AF
:10520000000000000000000000000000000000009E
:10521000000000000000000000000000808080808E
:105220008080808080808080000000040408080066
:10523000000000000000000000000000000000006E
:10524000000000000000000000000000000000005E
:105250000000000000000000000098D844642424EE
:10526000FCF80000000F1F18101010081F1F101866
:105270000020E0F000000000000000000000FFFF40
:10528000180804040CF8F00000001F0F181010108C
:10529000180F0300000000000000000000000000E4
:1052A00000E0F8180404043C3800000000030F0C70
:1052B0001010101008060000000000000000002080
:1052C000E0F0000000E0F81C04040408FFFF000008
:1052D00000030F18101010081F0F08000000000036
:1052E00000000000000000000000E0F848444444D2
:1052F0004C7870000000030F0C1810101008040008
:105300000000000080C0602020E0C0000004040411
:10531000FFFF040404040000000010101F1F101001
:10532000100000000000000000000000000000006D
:10533000000070F88C04048CF874040C007076CFB4
:105340008D8D8D89C87870000020E0F0000000008D
:10535000000000000000FFFF08040404FCF8000047
:1053600000101F1F100000101F1F10000000000081
:1053700000606000000000000000040404FCFC0069
:105380000000000000001010101F1F10101000007F
:10539000000000000000006060000000000000004D
:1053A000040404FCFC0000000000C0C08080C07F3A
:1053B0003F0000000020E0F00000000000000000BE
:1053C0000000FFFF80C0F41C0404000000101F1F39
:1053D0001100031F1C1010000000202020E0F0002E
:1053E000000000000000000000FFFF0000000000BF
:1053F00000001010101F1F1010100000000000000F
:10540000000000000000000004FCFC0804FCFC0894
:1054100004FCFC00101F1F10001F1F10001F1F1096
:105420000000000000000000000000000004FCFC80
:1054300008080404FCF8000000101F1F10000010F2
:105440001F1F10000000000000000000000000000E
:1054500000E0F0180C04040C18F0E00000030F0C3E
:10546000101010100C0F03000000000000000000DE
:10547000000000000004FCFC080404040CF8F00028
:105480000080FFFF889010101C0F03000000000038
:10549000000000000000000000E0F81C0404040804
:1054A000F8FC000000030F1810109088FFFF800028
:1054B000000000000000000000000000040404FCE4
:1054C000FC100804040C0C001010101F1F1010100A
:1054D00000000000000000000000000000000000CC
:1054E00000003078CCC48484840C1C0000001E189A
:1054F00010101011190F06000000000000C000007D
:105500000000000000040404FFFF04040400000085
:10551000000000000F1F1010100C00000000000021
:1055200000000000000000000004FCFE0000000479
:10553000FCFE000000000F1F181010081F0F0800CD
:1055400000000000000000000000000000040C3C0F
:10555000FCC40000C43C0C0400000000010F1E0E3F
:10556000010000000000000000000000000000003A
:10557000043CFCC400E47CFC84807C040000071F25
:10558000070000071F0700000000000000000000E7
:10559000000000000004041C7CE4C0341C0404006F
:1055A0000010101C1601131F1C1810000000000032
:1055B000000000000000000000040C3CFCC400C41B
:1055C0003C0404000000C080C1370E010000000050
:1055D00000000000000000000000000000001C04AB
:1055E00004C4F47C1C0400000000101C1F171110E0
:1055F00010180E0000000000000000F80C0400006D
:1056000000000000001028EF000000000000000073
:105610000000003F60400000000000000000FF00AC
:1056200000000000000000000000FF00000000007B
:10563000000000000000FF00000000000000040C5B
:10564000F80000000000000000000000EF2810003B
:1056500000000000000040603F000000000000006B
:105660000018060202040810202030080000000084
:10567000000000000000000000000000000000002A
:10568000000000001060028C0000FE929292929244
:10569000FE00000004047E01407E42427E427E42C3
:1056A000427E40000000FC242424FC252624FC2407
:1056B0002424040040308F80844C55252525554CEA
:1056C000808080000000000000000000000000005A
:1056D000000000000000363600000000000000005E
:1056E00000000000060909E6F80C040202020202AA
:1056F000041E0000000000071F30204040404040D2
:10570000201000001060028C00FE92929292929201
:10571000FE00000004047E014448507F40407F505A
:10572000484440000004047454545556545454746E
:1057300004040000848341211D05050505057D81C4
:105740008185E300000000C080808080808080FC34
:1057500084808080808080C0C0000000000000FF46
:105760007F404040404040FF40404040404040FF7C
:105770007F00000000000000000000000000007F2B
:1057800070000000000000000000000000000000A9
:105790000000000000000000000000FCF800000015
:1057A00000000000000000000000000000000000F9
:1057B000FFFE020202020202020202FFFF020202D6
:1057C000020202020202FF030000000000000000CB
:1057D0001F1F040404040404040404FFFF0404045D
:1057E0000404040404041F00000000000000000082
:1057F00000000000000000000000007F3F000000EB
:105800000000000000000000000000000000000098
:105810000000000000000000000000000000000088
:10582000000000000000000000F8F8F0F070200018
:105830000000000000000000000000000000000068
:105840000000000000000000000000000000000058
:1058500000000000800000000000000000000000C8
:10586000000000000000000000FFFFFFFF0000003C
:105870000000000000000000000000000000000028
:105880008080000000000000000000000000000018
:105890000000000000FFFFFE0606060606060606DC
:1058A000060606060606060606FFFFFFFF060606B4
:1058B000060606060606060606060606060606FF8F
:1058C000FFFFFF07020000000000000000000000D2
:1058D0000000000000FFFFFF0000000000000000CB
:1058E000000000000000000000FFFFFFFF000000BC
:1058F000000000000000000000000000000000FFA9
:10590000FFFFFF000000000000000000000000009A
:105910000000000000FFFFFF1818181818181818CA
:10592000181818181818181818FFFFFFFF1818185B
:10593000181818181818181818181818181818FF00
:10594000FFFFFF000000000000000000000000005A
:105950000000000002010100000000000000000043
:10596000000000000000000000FFFFFFFF0000003B
:105970000000000000000000000000000000000126
:105980000100000000000000000000000000000016
:105990000000000000000000000000000000000007
:1059A000000000000000000000FFFFFFFF000000FB
:1059B00000000000000000000000000000000000E7
:1059C00000000000000000000000000000000000D7
:1059D00000000000000000000000000000000000C7
:1059E0000000000000000000001F1F0F0F0000005B
:1059F00000000000000000000000000000000000A7
:105A00000000000000000000000000001F00000077
:105A10001C0000001F0000001E0000001F0000000E
:105A20001E0000001F0000001F0000001E000000FC
:105A30001F0000001E0000001F000000945A000814
:105A4000905A0008885A0008845A00089C5A000896
:105A50008C5A0008985A0008010202030405060740
:105A600008090A0B0C0D0E0F1010000000000000BA
:105A700000000102030406070809000000000102FB
:105A800003040000576564005475650046726900A0
:105A90004D6F6E0053756E0053617400546875004D
:105AA000C05A0008000000202800000060320008F2
:105AB000E85A000828000020380C00007032000866
:105AC000000101000000000101010100E9070000E0
:105AD00000000000000000000100000010000000B5
